{
    "abi": [
        {
            "type": "constructor",
            "inputs": [
                {
                    "name": "_manager",
                    "type": "address",
                    "internalType": "address"
                },
                {
                    "name": "_dailyLimit",
                    "type": "uint256",
                    "internalType": "uint256"
                }
            ],
            "stateMutability": "nonpayable"
        },
        {
            "type": "function",
            "name": "computeDue",
            "inputs": [
                {
                    "name": "rate",
                    "type": "uint256",
                    "internalType": "uint256"
                },
                {
                    "name": "lastPaid",
                    "type": "uint256",
                    "internalType": "uint256"
                }
            ],
            "outputs": [
                {
                    "name": "",
                    "type": "uint256",
                    "internalType": "uint256"
                }
            ],
            "stateMutability": "view"
        },
        {
            "type": "function",
            "name": "dailyLimit",
            "inputs": [],
            "outputs": [
                {
                    "name": "",
                    "type": "uint256",
                    "internalType": "uint256"
                }
            ],
            "stateMutability": "view"
        },
        {
            "type": "function",
            "name": "deposit",
            "inputs": [],
            "outputs": [],
            "stateMutability": "payable"
        },
        {
            "type": "function",
            "name": "getBalance",
            "inputs": [],
            "outputs": [
                {
                    "name": "",
                    "type": "uint256",
                    "internalType": "uint256"
                }
            ],
            "stateMutability": "view"
        },
        {
            "type": "function",
            "name": "getEmployeeInfo",
            "inputs": [
                {
                    "name": "empAddress",
                    "type": "address",
                    "internalType": "address"
                }
            ],
            "outputs": [
                {
                    "name": "",
                    "type": "tuple",
                    "internalType": "struct PayrollTreasury.Employee",
                    "components": [
                        {
                            "name": "exists",
                            "type": "bool",
                            "internalType": "bool"
                        },
                        {
                            "name": "rate",
                            "type": "uint256",
                            "internalType": "uint256"
                        },
                        {
                            "name": "lastPaid",
                            "type": "uint256",
                            "internalType": "uint256"
                        },
                        {
                            "name": "totalPaid",
                            "type": "uint256",
                            "internalType": "uint256"
                        }
                    ]
                }
            ],
            "stateMutability": "view"
        },
        {
            "type": "function",
            "name": "getEmployeeListAddress",
            "inputs": [],
            "outputs": [
                {
                    "name": "",
                    "type": "address[]",
                    "internalType": "address[]"
                }
            ],
            "stateMutability": "view"
        },
        {
            "type": "function",
            "name": "i_manager",
            "inputs": [],
            "outputs": [
                {
                    "name": "",
                    "type": "address",
                    "internalType": "address"
                }
            ],
            "stateMutability": "view"
        },
        {
            "type": "function",
            "name": "i_owner",
            "inputs": [],
            "outputs": [
                {
                    "name": "",
                    "type": "address",
                    "internalType": "address"
                }
            ],
            "stateMutability": "view"
        },
        {
            "type": "function",
            "name": "lastDayWithdraw",
            "inputs": [],
            "outputs": [
                {
                    "name": "",
                    "type": "uint256",
                    "internalType": "uint256"
                }
            ],
            "stateMutability": "view"
        },
        {
            "type": "function",
            "name": "payEmployee",
            "inputs": [
                {
                    "name": "empAddress",
                    "type": "address",
                    "internalType": "address payable"
                }
            ],
            "outputs": [],
            "stateMutability": "nonpayable"
        },
        {
            "type": "function",
            "name": "registerEmployee",
            "inputs": [
                {
                    "name": "empAddress",
                    "type": "address",
                    "internalType": "address"
                },
                {
                    "name": "rate",
                    "type": "uint256",
                    "internalType": "uint256"
                }
            ],
            "outputs": [],
            "stateMutability": "nonpayable"
        },
        {
            "type": "function",
            "name": "removeEmployee",
            "inputs": [
                {
                    "name": "empAddress",
                    "type": "address",
                    "internalType": "address"
                }
            ],
            "outputs": [],
            "stateMutability": "nonpayable"
        },
        {
            "type": "function",
            "name": "runPayroll",
            "inputs": [],
            "outputs": [],
            "stateMutability": "nonpayable"
        },
        {
            "type": "function",
            "name": "setNewEmployeeSalary",
            "inputs": [
                {
                    "name": "empAddress",
                    "type": "address",
                    "internalType": "address"
                },
                {
                    "name": "rate",
                    "type": "uint256",
                    "internalType": "uint256"
                }
            ],
            "outputs": [],
            "stateMutability": "nonpayable"
        },
        {
            "type": "function",
            "name": "totalWithdrawnToday",
            "inputs": [],
            "outputs": [
                {
                    "name": "",
                    "type": "uint256",
                    "internalType": "uint256"
                }
            ],
            "stateMutability": "view"
        },
        {
            "type": "function",
            "name": "withdraw",
            "inputs": [
                {
                    "name": "amount",
                    "type": "uint256",
                    "internalType": "uint256"
                }
            ],
            "outputs": [],
            "stateMutability": "nonpayable"
        },
        {
            "type": "event",
            "name": "Deposited",
            "inputs": [
                {
                    "name": "user",
                    "type": "address",
                    "indexed": true,
                    "internalType": "address"
                },
                {
                    "name": "amount",
                    "type": "uint256",
                    "indexed": false,
                    "internalType": "uint256"
                }
            ],
            "anonymous": false
        },
        {
            "type": "event",
            "name": "EmployeeAdded",
            "inputs": [
                {
                    "name": "employee",
                    "type": "address",
                    "indexed": true,
                    "internalType": "address"
                },
                {
                    "name": "salary",
                    "type": "uint256",
                    "indexed": false,
                    "internalType": "uint256"
                },
                {
                    "name": "timestamp",
                    "type": "uint256",
                    "indexed": false,
                    "internalType": "uint256"
                }
            ],
            "anonymous": false
        },
        {
            "type": "event",
            "name": "EmployeeRemoved",
            "inputs": [
                {
                    "name": "employee",
                    "type": "address",
                    "indexed": true,
                    "internalType": "address"
                },
                {
                    "name": "timestamp",
                    "type": "uint256",
                    "indexed": false,
                    "internalType": "uint256"
                }
            ],
            "anonymous": false
        },
        {
            "type": "event",
            "name": "EmployeeSalaryUpdated",
            "inputs": [
                {
                    "name": "employee",
                    "type": "address",
                    "indexed": true,
                    "internalType": "address"
                },
                {
                    "name": "newSalary",
                    "type": "uint256",
                    "indexed": false,
                    "internalType": "uint256"
                }
            ],
            "anonymous": false
        },
        {
            "type": "event",
            "name": "Payment",
            "inputs": [
                {
                    "name": "to",
                    "type": "address",
                    "indexed": true,
                    "internalType": "address"
                },
                {
                    "name": "amount",
                    "type": "uint256",
                    "indexed": false,
                    "internalType": "uint256"
                },
                {
                    "name": "timestamp",
                    "type": "uint256",
                    "indexed": false,
                    "internalType": "uint256"
                }
            ],
            "anonymous": false
        },
        {
            "type": "event",
            "name": "PayrollRun",
            "inputs": [
                {
                    "name": "employee",
                    "type": "address",
                    "indexed": true,
                    "internalType": "address"
                },
                {
                    "name": "timestamp",
                    "type": "uint256",
                    "indexed": false,
                    "internalType": "uint256"
                }
            ],
            "anonymous": false
        },
        {
            "type": "event",
            "name": "Withdrawn",
            "inputs": [
                {
                    "name": "user",
                    "type": "address",
                    "indexed": true,
                    "internalType": "address"
                },
                {
                    "name": "amount",
                    "type": "uint256",
                    "indexed": false,
                    "internalType": "uint256"
                },
                {
                    "name": "timestamp",
                    "type": "uint256",
                    "indexed": false,
                    "internalType": "uint256"
                }
            ],
            "anonymous": false
        },
        {
            "type": "error",
            "name": "NotOwner",
            "inputs": []
        }
    ],
    "bytecode": {
        "object": "0x60c060405234801561000f575f5ffd5b50604051611f90380380611f9083398181016040528101906100319190610153565b8173ffffffffffffffffffffffffffffffffffffffff1660808173ffffffffffffffffffffffffffffffffffffffff16815250503373ffffffffffffffffffffffffffffffffffffffff1660a08173ffffffffffffffffffffffffffffffffffffffff1681525050805f8190555062015180426100ae91906101be565b6001819055505f60028190555050506101ee565b5f5ffd5b5f73ffffffffffffffffffffffffffffffffffffffff82169050919050565b5f6100ef826100c6565b9050919050565b6100ff816100e5565b8114610109575f5ffd5b50565b5f8151905061011a816100f6565b92915050565b5f819050919050565b61013281610120565b811461013c575f5ffd5b50565b5f8151905061014d81610129565b92915050565b5f5f60408385031215610169576101686100c2565b5b5f6101768582860161010c565b92505060206101878582860161013f565b9150509250929050565b7f4e487b71000000000000000000000000000000000000000000000000000000005f52601260045260245ffd5b5f6101c882610120565b91506101d383610120565b9250826101e3576101e2610191565b5b828204905092915050565b60805160a051611d2661026a5f395f81816103dc015281816106c3015281816109a401528181610d2c01528181611018015281816111a1015261121c01525f81816103850152818161066c015281816108d80152818161094d01528181610be701528181610cd501528181610fc101526111c50152611d265ff3fe6080604052600436106100f2575f3560e01c80639f89de9811610089578063d438d3e211610058578063d438d3e2146102e8578063dba6335f14610312578063f2e804831461033c578063fed3f76414610352576100f2565b80639f89de9814610264578063ca6828971461028e578063d0e30db0146102b6578063d108177a146102c0576100f2565b80635ac09b2b116100c55780635ac09b2b146101985780635bc08981146101d457806367eeba0c146101fe5780637c01083614610228576100f2565b806312065fe0146100f65780631f50ad16146101205780632e1a7d4d1461014857806351330bc314610170575b5f5ffd5b348015610101575f5ffd5b5061010a61037c565b604051610117919061146d565b60405180910390f35b34801561012b575f5ffd5b50610146600480360381019061014191906114e4565b610383565b005b348015610153575f5ffd5b5061016e60048036038101906101699190611539565b61066a565b005b34801561017b575f5ffd5b506101966004803603810190610191919061159f565b61094b565b005b3480156101a3575f5ffd5b506101be60048036038101906101b991906115dd565b610b57565b6040516101cb9190611684565b60405180910390f35b3480156101df575f5ffd5b506101e8610be5565b6040516101f591906116ac565b60405180910390f35b348015610209575f5ffd5b50610212610c09565b60405161021f919061146d565b60405180910390f35b348015610233575f5ffd5b5061024e600480360381019061024991906116c5565b610c0e565b60405161025b919061146d565b60405180910390f35b34801561026f575f5ffd5b50610278610ccd565b604051610285919061146d565b60405180910390f35b348015610299575f5ffd5b506102b460048036038101906102af919061159f565b610cd3565b005b6102be610f6f565b005b3480156102cb575f5ffd5b506102e660048036038101906102e191906115dd565b610fbf565b005b3480156102f3575f5ffd5b506102fc611199565b604051610309919061146d565b60405180910390f35b34801561031d575f5ffd5b5061032661119f565b60405161033391906116ac565b60405180910390f35b348015610347575f5ffd5b506103506111c3565b005b34801561035d575f5ffd5b506103666113a4565b60405161037391906117ba565b60405180910390f35b5f47905090565b7f000000000000000000000000000000000000000000000000000000000000000073ffffffffffffffffffffffffffffffffffffffff163373ffffffffffffffffffffffffffffffffffffffff161415801561042b57507f000000000000000000000000000000000000000000000000000000000000000073ffffffffffffffffffffffffffffffffffffffff163373ffffffffffffffffffffffffffffffffffffffff1614155b15610462576040517f30cd747100000000000000000000000000000000000000000000000000000000815260040160405180910390fd5b5f60045f8373ffffffffffffffffffffffffffffffffffffffff1673ffffffffffffffffffffffffffffffffffffffff1681526020019081526020015f209050805f015f9054906101000a900460ff166104f1576040517f08c379a00000000000000000000000000000000000000000000000000000000081526004016104e890611834565b60405180910390fd5b5f61050482600101548360020154610c0e565b905080471015610549576040517f08c379a00000000000000000000000000000000000000000000000000000000081526004016105409061189c565b60405180910390fd5b5f8373ffffffffffffffffffffffffffffffffffffffff168260405161056e906118e7565b5f6040518083038185875af1925050503d805f81146105a8576040519150601f19603f3d011682016040523d82523d5f602084013e6105ad565b606091505b50509050806105f1576040517f08c379a00000000000000000000000000000000000000000000000000000000081526004016105e890611945565b60405180910390fd5b42836002018190555081836003015f82825461060d9190611990565b925050819055508373ffffffffffffffffffffffffffffffffffffffff167f9643c1b5b172b26d5f028be7fe646349bd5e3cd9367bb18f9e825afa828b7d93834260405161065c9291906119c3565b60405180910390a250505050565b7f000000000000000000000000000000000000000000000000000000000000000073ffffffffffffffffffffffffffffffffffffffff163373ffffffffffffffffffffffffffffffffffffffff161415801561071257507f000000000000000000000000000000000000000000000000000000000000000073ffffffffffffffffffffffffffffffffffffffff163373ffffffffffffffffffffffffffffffffffffffff1614155b15610749576040517f30cd747100000000000000000000000000000000000000000000000000000000815260040160405180910390fd5b4781111561078c576040517f08c379a00000000000000000000000000000000000000000000000000000000081526004016107839061189c565b60405180910390fd5b5f3373ffffffffffffffffffffffffffffffffffffffff16826040516107b1906118e7565b5f6040518083038185875af1925050503d805f81146107eb576040519150601f19603f3d011682016040523d82523d5f602084013e6107f0565b606091505b5050905080610834576040517f08c379a000000000000000000000000000000000000000000000000000000000815260040161082b90611945565b60405180910390fd5b62015180426108439190611a17565b6001819055505f62015180426108599190611a17565b905060018160015461086b9190611a47565b14610878575f6002819055505b8260025f8282546108899190611990565b925050819055505f5460025411156108d6576040517f08c379a00000000000000000000000000000000000000000000000000000000081526004016108cd90611ac4565b60405180910390fd5b7f000000000000000000000000000000000000000000000000000000000000000073ffffffffffffffffffffffffffffffffffffffff167f92ccf450a286a957af52509bc1c9939d1a6a481783e142e41e2499f0bb66ebc6844260405161093e9291906119c3565b60405180910390a2505050565b7f000000000000000000000000000000000000000000000000000000000000000073ffffffffffffffffffffffffffffffffffffffff163373ffffffffffffffffffffffffffffffffffffffff16141580156109f357507f000000000000000000000000000000000000000000000000000000000000000073ffffffffffffffffffffffffffffffffffffffff163373ffffffffffffffffffffffffffffffffffffffff1614155b15610a2a576040517f30cd747100000000000000000000000000000000000000000000000000000000815260040160405180910390fd5b5f8111610a6c576040517f08c379a0000000000000000000000000000000000000000000000000000000008152600401610a6390611b2c565b60405180910390fd5b5f60045f8473ffffffffffffffffffffffffffffffffffffffff1673ffffffffffffffffffffffffffffffffffffffff1681526020019081526020015f209050805f015f9054906101000a900460ff16610afb576040517f08c379a0000000000000000000000000000000000000000000000000000000008152600401610af290611834565b60405180910390fd5b8181600101819055508273ffffffffffffffffffffffffffffffffffffffff167f11de00f6f732fd33a4013e4322e9a2bf118b85398c039ef1bace213e3a1b04c083604051610b4a919061146d565b60405180910390a2505050565b610b5f61142f565b60045f8373ffffffffffffffffffffffffffffffffffffffff1673ffffffffffffffffffffffffffffffffffffffff1681526020019081526020015f206040518060800160405290815f82015f9054906101000a900460ff1615151515815260200160018201548152602001600282015481526020016003820154815250509050919050565b7f000000000000000000000000000000000000000000000000000000000000000081565b5f5481565b5f5f5f90505f62278d0090505f8511610c5c576040517f08c379a0000000000000000000000000000000000000000000000000000000008152600401610c5390611b94565b60405180910390fd5b428410610c9e576040517f08c379a0000000000000000000000000000000000000000000000000000000008152600401610c9590611bfc565b60405180910390fd5b808442610cab9190611a47565b86610cb69190611c1a565b610cc09190611a17565b9150819250505092915050565b60015481565b7f000000000000000000000000000000000000000000000000000000000000000073ffffffffffffffffffffffffffffffffffffffff163373ffffffffffffffffffffffffffffffffffffffff1614158015610d7b57507f000000000000000000000000000000000000000000000000000000000000000073ffffffffffffffffffffffffffffffffffffffff163373ffffffffffffffffffffffffffffffffffffffff1614155b15610db2576040517f30cd747100000000000000000000000000000000000000000000000000000000815260040160405180910390fd5b5f8111610df4576040517f08c379a0000000000000000000000000000000000000000000000000000000008152600401610deb90611b2c565b60405180910390fd5b5f60045f8473ffffffffffffffffffffffffffffffffffffffff1673ffffffffffffffffffffffffffffffffffffffff1681526020019081526020015f209050805f015f9054906101000a900460ff1615610e84576040517f08c379a0000000000000000000000000000000000000000000000000000000008152600401610e7b90611ca5565b60405180910390fd5b8181600101819055506001815f015f6101000a81548160ff0219169083151502179055504281600201819055505f8160030181905550600383908060018154018082558091505060019003905f5260205f20015f9091909190916101000a81548173ffffffffffffffffffffffffffffffffffffffff021916908373ffffffffffffffffffffffffffffffffffffffff1602179055508273ffffffffffffffffffffffffffffffffffffffff167f5988883e6253a1bb86a37bd86c21e5ba0f2bdb8cfcabef26acfb70a4af522b9b8342604051610f629291906119c3565b60405180910390a2505050565b3373ffffffffffffffffffffffffffffffffffffffff167f2da466a7b24304f47e87fa2e1e5a81b9831ce54fec19055ce277ca2f39ba42c434604051610fb5919061146d565b60405180910390a2565b7f000000000000000000000000000000000000000000000000000000000000000073ffffffffffffffffffffffffffffffffffffffff163373ffffffffffffffffffffffffffffffffffffffff161415801561106757507f000000000000000000000000000000000000000000000000000000000000000073ffffffffffffffffffffffffffffffffffffffff163373ffffffffffffffffffffffffffffffffffffffff1614155b1561109e576040517f30cd747100000000000000000000000000000000000000000000000000000000815260040160405180910390fd5b5f60045f8373ffffffffffffffffffffffffffffffffffffffff1673ffffffffffffffffffffffffffffffffffffffff1681526020019081526020015f209050805f015f9054906101000a900460ff1661112d576040517f08c379a000000000000000000000000000000000000000000000000000000000815260040161112490611834565b60405180910390fd5b5f815f015f6101000a81548160ff0219169083151502179055508173ffffffffffffffffffffffffffffffffffffffff167f0df1b9563736a12ee1ee68f0afa65fea048466741b23610aec9b9edf5ac049804260405161118d919061146d565b60405180910390a25050565b60025481565b7f000000000000000000000000000000000000000000000000000000000000000081565b7f000000000000000000000000000000000000000000000000000000000000000073ffffffffffffffffffffffffffffffffffffffff163373ffffffffffffffffffffffffffffffffffffffff161415801561126b57507f000000000000000000000000000000000000000000000000000000000000000073ffffffffffffffffffffffffffffffffffffffff163373ffffffffffffffffffffffffffffffffffffffff1614155b156112a2576040517f30cd747100000000000000000000000000000000000000000000000000000000815260040160405180910390fd5b5f5f90505b6003805490508110156113a1575f600382815481106112c9576112c8611cc3565b5b905f5260205f20015f9054906101000a900473ffffffffffffffffffffffffffffffffffffffff1690505f61137e60045f8473ffffffffffffffffffffffffffffffffffffffff1673ffffffffffffffffffffffffffffffffffffffff1681526020019081526020015f206001015460045f8573ffffffffffffffffffffffffffffffffffffffff1673ffffffffffffffffffffffffffffffffffffffff1681526020019081526020015f2060020154610c0e565b90505f8111156113925761139182610383565b5b505080806001019150506112a7565b50565b6060600380548060200260200160405190810160405280929190818152602001828054801561142557602002820191905f5260205f20905b815f9054906101000a900473ffffffffffffffffffffffffffffffffffffffff1673ffffffffffffffffffffffffffffffffffffffff16815260200190600101908083116113dc575b5050505050905090565b60405180608001604052805f151581526020015f81526020015f81526020015f81525090565b5f819050919050565b61146781611455565b82525050565b5f6020820190506114805f83018461145e565b92915050565b5f5ffd5b5f73ffffffffffffffffffffffffffffffffffffffff82169050919050565b5f6114b38261148a565b9050919050565b6114c3816114a9565b81146114cd575f5ffd5b50565b5f813590506114de816114ba565b92915050565b5f602082840312156114f9576114f8611486565b5b5f611506848285016114d0565b91505092915050565b61151881611455565b8114611522575f5ffd5b50565b5f813590506115338161150f565b92915050565b5f6020828403121561154e5761154d611486565b5b5f61155b84828501611525565b91505092915050565b5f61156e8261148a565b9050919050565b61157e81611564565b8114611588575f5ffd5b50565b5f8135905061159981611575565b92915050565b5f5f604083850312156115b5576115b4611486565b5b5f6115c28582860161158b565b92505060206115d385828601611525565b9150509250929050565b5f602082840312156115f2576115f1611486565b5b5f6115ff8482850161158b565b91505092915050565b5f8115159050919050565b61161c81611608565b82525050565b61162b81611455565b82525050565b608082015f8201516116455f850182611613565b5060208201516116586020850182611622565b50604082015161166b6040850182611622565b50606082015161167e6060850182611622565b50505050565b5f6080820190506116975f830184611631565b92915050565b6116a681611564565b82525050565b5f6020820190506116bf5f83018461169d565b92915050565b5f5f604083850312156116db576116da611486565b5b5f6116e885828601611525565b92505060206116f985828601611525565b9150509250929050565b5f81519050919050565b5f82825260208201905092915050565b5f819050602082019050919050565b61173581611564565b82525050565b5f611746838361172c565b60208301905092915050565b5f602082019050919050565b5f61176882611703565b611772818561170d565b935061177d8361171d565b805f5b838110156117ad578151611794888261173b565b975061179f83611752565b925050600181019050611780565b5085935050505092915050565b5f6020820190508181035f8301526117d2818461175e565b905092915050565b5f82825260208201905092915050565b7f456d706c6f79656520646f6573206e6f742065786973740000000000000000005f82015250565b5f61181e6017836117da565b9150611829826117ea565b602082019050919050565b5f6020820190508181035f83015261184b81611812565b9050919050565b7f496e73756666696369656e742062616c616e63650000000000000000000000005f82015250565b5f6118866014836117da565b915061189182611852565b602082019050919050565b5f6020820190508181035f8301526118b38161187a565b9050919050565b5f81905092915050565b50565b5f6118d25f836118ba565b91506118dd826118c4565b5f82019050919050565b5f6118f1826118c7565b9150819050919050565b7f4661696c656420746f2073656e642045746865720000000000000000000000005f82015250565b5f61192f6014836117da565b915061193a826118fb565b602082019050919050565b5f6020820190508181035f83015261195c81611923565b9050919050565b7f4e487b71000000000000000000000000000000000000000000000000000000005f52601160045260245ffd5b5f61199a82611455565b91506119a583611455565b92508282019050808211156119bd576119bc611963565b5b92915050565b5f6040820190506119d65f83018561145e565b6119e3602083018461145e565b9392505050565b7f4e487b71000000000000000000000000000000000000000000000000000000005f52601260045260245ffd5b5f611a2182611455565b9150611a2c83611455565b925082611a3c57611a3b6119ea565b5b828204905092915050565b5f611a5182611455565b9150611a5c83611455565b9250828203905081811115611a7457611a73611963565b5b92915050565b7f45786365656473206461696c79206c696d6974000000000000000000000000005f82015250565b5f611aae6013836117da565b9150611ab982611a7a565b602082019050919050565b5f6020820190508181035f830152611adb81611aa2565b9050919050565b7f496e76616c69642073616c6172790000000000000000000000000000000000005f82015250565b5f611b16600e836117da565b9150611b2182611ae2565b602082019050919050565b5f6020820190508181035f830152611b4381611b0a565b9050919050565b7f496e76616c69642073616c6172792072617465000000000000000000000000005f82015250565b5f611b7e6013836117da565b9150611b8982611b4a565b602082019050919050565b5f6020820190508181035f830152611bab81611b72565b9050919050565b7f496e76616c6964206c61737420706169642074696d657374616d7000000000005f82015250565b5f611be6601b836117da565b9150611bf182611bb2565b602082019050919050565b5f6020820190508181035f830152611c1381611bda565b9050919050565b5f611c2482611455565b9150611c2f83611455565b9250828202611c3d81611455565b91508282048414831517611c5457611c53611963565b5b5092915050565b7f456d706c6f79656520616c7265616479206578697374730000000000000000005f82015250565b5f611c8f6017836117da565b9150611c9a82611c5b565b602082019050919050565b5f6020820190508181035f830152611cbc81611c83565b9050919050565b7f4e487b71000000000000000000000000000000000000000000000000000000005f52603260045260245ffdfea2646970667358221220e152b7f92e1d9f18d0d87ce1a1db5761dd4611d07784b7c91e2fba67f58f68c164736f6c634300081e0033",
        "linkReferences": {}
    },
    "methodIdentifiers": {
        "computeDue(uint256,uint256)": "7c010836",
        "dailyLimit()": "67eeba0c",
        "deposit()": "d0e30db0",
        "getBalance()": "12065fe0",
        "getEmployeeInfo(address)": "5ac09b2b",
        "getEmployeeListAddress()": "fed3f764",
        "i_manager()": "5bc08981",
        "i_owner()": "dba6335f",
        "lastDayWithdraw()": "9f89de98",
        "payEmployee(address)": "1f50ad16",
        "registerEmployee(address,uint256)": "ca682897",
        "removeEmployee(address)": "d108177a",
        "runPayroll()": "f2e80483",
        "setNewEmployeeSalary(address,uint256)": "51330bc3",
        "totalWithdrawnToday()": "d438d3e2",
        "withdraw(uint256)": "2e1a7d4d"
    },
    "id": 21
}